:020000040800F2
:10000000F8C00020A1010008733600084530000840
:10001000713600085D0D0008F73D00080000000083
:100020000000000000000000000000006B37000826
:10003000350E000800000000693700089D370008F1
:10004000BB010008BB010008BB010008BB010008A0
:10005000BB010008BB010008BB010008BB01000890
:10006000BB010008BB010008BB010008BB01000880
:10007000BB010008BB010008BB010008BB01000870
:10008000610D0008BB010008790B0008BB010008E6
:10009000BB010008BB010008BB010008BB01000850
:1000A000BB010008BB010008BB010008BB01000840
:1000B000BB0100084538000851380008BB010008A2
:1000C000BB010008BB010008BB010008BB01000820
:1000D000BB010008BB010008BB010008BB01000810
:1000E000BB010008BB010008BB010008BB01000800
:1000F000BB010008BB010008BB010008BB010008F0
:10010000BB010008BB010008BB010008BB010008DF
:10011000BB010008BB010008BB010008BB010008CF
:100120006D0D0008BB010008BB010008850D00082B
:10013000BB010008BB010008BB010008BB010008AF
:10014000BB010008BB010008BB010008BB0100089F
:10015000BB010008BB010008BB010008BB0100088F
:10016000BB010008BB010008BB010008BB0100087F
:10017000BB010008BB010008BB0100080000000033
:10018000BB010008BB010008DFF810D000F046FBFF
:1001900000480047D5780008AFF30080F8C0002081
:1001A0000648804706480047FEE7FEE7FEE7FEE711
:1001B000FEE7FEE7FEE7FEE7FEE7FEE7353800086C
:1001C000890100082DE9F05F0546002092469B4614
:1001D00088460646814640241BE02846414647465D
:1001E000224600F034FA53465A46C01A914110D3C1
:1001F00011461846224600F01BFA2D1A67EB01083B
:100200004F4622460120002100F012FA17EB0009A8
:100210004E41201EA4F10104DFDC484631462A4647
:100220004346BDE8F09FD2B201E000F8012B491E21
:10023000FBD270470022F6E710B513460A46044683
:100240001946FFF7F0FF204610BD2DE9FE4F80460E
:1002500081EA0300C00F0C46009021F0004123F01A
:100260000045B8EB0200A94105D240462146904620
:100270001C460B46024623F00040104347D0270D92
:10028000C7F30A00C3F30A510290401A01904028B4
:100290006BDAC3F3130040F4801B0098924620B140
:1002A0000023D2EB030A63EB0B0B01985946C0F114
:1002B0004002504600F0BCF906460D4650465946ED
:1002C000019A00F0D4F910EB08006141002487EA9C
:1002D000115284EAE7731A4340D0009A62B3019A3C
:1002E000012A4FEA075215DC001B61EB02014FF0B7
:1002F000004202EA0752CDE90042001C41F580119C
:1003000032462B4600F00BFA03B0BDE8F08F4046B2
:100310002146F9E7001B61EB0201001C41F5801347
:1003200000185B412018A2F5001747EB030140EAD3
:10033000D570B6196D4111E06D084FEA360645EAF1
:10034000C0754FEA0752001B61EB0201001C41F52A
:10035000801149084FEA30000019514132462B46BE
:1003600003B0BDE8F04F00F0CBB900980122400087
:100370000023D0EB020263EBE073009821464FEAC2
:10038000E074B8EB000061EB0401E9E783F000439F
:100390005BE781F0004158E72DE9FE4F81EA030455
:1003A00004F0004421F0004100944FF0000B23F0D2
:1003B000004350EA01045ED052EA03045BD0C3F369
:1003C0000A54C1F30A552C44A4F2F3340194A0FB5F
:1003D0000254C1F3130141F48011C3F3130343F436
:1003E000801301FB024400FB034E840A970A44EA8F
:1003F000815447EA8357A4FB076802958D0A05FBE1
:1004000007854FEA932C04FB0C542705029D4FEA05
:10041000065847EA1637B5EB08056EEB070C870E52
:10042000920E47EA811742EA8312A7FB0201B6EB5C
:100430000B0164EB00042B0D43EA0C335E1844EB14
:100440001C50DA465146E7FB0201C5F313044FEA9C
:100450000B3343EA14534FEA0432019C43EA060388
:10046000A4F10C040294009CCDE900B400F057F90B
:1004700003B0BDE8F08F00200146F9E72DE9F04D0B
:1004800081EA030404F0004B21F0004514464FF0CC
:10049000000A23F0004150EA050220D054EA01028C
:1004A0001DD0C5F30A570246C5F31303C1F3130069
:1004B000C1F30A5640F4801543F48013A7EB0608F5
:1004C000101BD64608F2FD3873EB050002D308F185
:1004D000010801E092185B41B8F1000F03DA002037
:1004E0000146BDE8F08D00204FF480110646844699
:1004F0000EE0171B73EB050705D3121B63EB050317
:1005000006434CEA010C49084FEA300092185B415F
:1005100050EA0107EDD152EA030012D082EA04004A
:1005200083EA0501084305D0101BAB4106D2012226
:10053000002306E000224FF0004302E06FF00102CA
:1005400053101AEB06004CEB085110EB0A0041EB7C
:100550000B01BDE8F04D00F0D3B80EB540F23341C9
:1005600002910021CDE900110A460B4600F0D7F8B0
:1005700003B000BDC1F30A5210B5C1F3130140F23C
:10058000FF3341F480119A4201DA002010BD40F29D
:1005900033439A42A2F2334203DC524200F057F84E
:1005A00010BD904010BD00F0004230F000400AD075
:1005B000C10D01F56071C0F3160042EA0151C20895
:1005C00040071143704700200146704701F0004387
:1005D00030B421F0004150EA010206D00A0DA2F524
:1005E0006072C1F31301002A02DC30BC00207047A6
:1005F000440F44EAC104C100E01830BC00EBC25013
:1006000000F047B830B50B460146002020220124F7
:1006100009E021FA02F59D4205D303FA02F5491BD0
:1006200004FA02F52844151EA2F10102F1DC30BDE6
:10063000202A04DB203A00FA02F1002070479140A2
:10064000C2F1200320FA03F3194390407047202A97
:1006500004DB203A21FA02F00021704721FA02F36C
:10066000D040C2F120029140084319467047202A29
:1006700006DBCB17203A41FA02F043EAE07306E0CA
:1006800041FA02F3D040C2F12002914008431946DA
:1006900070470029A8BF7047401C490008BF20F0E0
:1006A0000100704710B4B0FA80FC00FA0CF050EA78
:1006B000010404BF10BC704749B1CCF1200421FAF9
:1006C00004F411FA0CF118BF012121430843A3EBF4
:1006D0000C01CB1D4FEA00614FEA102042BF002001
:1006E00010BC704700EBC35010440029A4BF10BCDD
:1006F0007047401C490008BF20F0010010BC704743
:1007000010B5141E73F1000408DA401C41F1000119
:1007100092185B411A4301D120F0010010BD2DE970
:10072000F04D92469B4611B1B1FA81F202E0B0FA67
:1007300080F220329046FFF77BFF04460F4640EAE6
:100740000A0041EA0B0153465A46084313D01146AA
:1007500053EA010019D0C8F140025046FFF777FF75
:1007600005460E46504659464246FFF761FF08438C
:1007700005D0012004E020463946BDE8F08D002078
:10078000054346EAE0762C4337430A986305E40ABA
:10079000A0EB08000022FD0A44EA47540A3002D5C3
:1007A00000200146E9E7010510196941DDE9084526
:1007B00000196941BDE8F04DA2E7C1F30A52C1F347
:1007C000130140F2FF3341F480119A4202DA002013
:1007D0000146704740F233439A42A2F2334202DCB0
:1007E0005242FFF734BFFFF723BF000030B5041EAD
:1007F00071F1000404DB4FF00044404264EB01015E
:10080000141E73F1000405DB1C464FF000435242F6
:1008100063EB0403994208BF904230BD064C074D7C
:1008200006E0E06840F0010394E8070098471034C0
:10083000AC42F6D3FFF7ACFC84A90008A4A90008D9
:1008400070B58D1810F8014B14F0030201D110F8A7
:10085000012B231106D110F8013B03E010F8016BC6
:1008600001F8016B521EF9D1ABB110F8012B04F065
:100870000C048A1A0C2C03D0A2EB84129B1C08E0F7
:1008800010F8014BA2EB0422F8E712F8014B01F833
:10089000014B5B1EF9D5A942D4D3002070BD0000E6
:1008A00070B50122294D54022146284601F024F951
:1008B00000222146284601F01FF9254E0022202162
:1008C000304601F019F9022003F096FA214D002478
:1008D000285D03F091FA641C042CF9DB012220212D
:1008E000304601F009F90A21491EFDD100222021DC
:1008F000304601F001F9032003F07EFA154D002483
:100900002D1D285D03F078FA641C042CF9DB01220C
:100910002021304601F0F0F80A21491EFDD10022C5
:100920004021304601F0E8F80A21491EFDD101229C
:100930004021304601F0E0F80A21491EFDD1304641
:10094000BDE870400022402101F0D6B80008024006
:1009500000180240640000207CB526A0274E0068E5
:10096000009025A00022006801902021304601F06F
:10097000C3F8002003F040FA00246D46285D03F020
:100980003BFA641C042CF9DB01222021304601F0E3
:10099000B3F80A21491EFDD100222021304601F082
:1009A000ABF8012003F028FA002401AD285D03F024
:1009B00023FA641C042CF9DB01222021304601F0CB
:1009C0009BF80A21491EFDD100224021304601F04A
:1009D00093F80A21491EFDD101224021304601F041
:1009E0008BF80A21491EFDD100224021304601F03A
:1009F00083F87CBD00400000014008200018024040
:100A00002DE9F04106461C4617460846FFF7A5FDAE
:100A10009FED2F1B53EC112BFFF7BEFCFFF7AAFD38
:100A200005462046FFF799FD9FED2B1B53EC112B3C
:100A3000FFF7B2FCFFF79EFD082E14D2DFE806F0A8
:100A40000406080A0C0E10120E240CE00F240AE013
:100A5000102408E0112406E0122404E0132402E02C
:100A6000142400E015241E4E290A0022F571B171EC
:100A7000290C7171290E3171F070000AB070777015
:100A8000380A184D30702021284601F035F82046EC
:100A900003F0B2F90024305D03F0AEF9641C082CB9
:100AA000F9DB01222021284601F026F80A20401E09
:100AB000FDD101224021284601F01EF80A20401EE7
:100AC000FDD12846BDE8F0410022402101F014B8D4
:100AD00095D626E80B2E1140012FC1166CC1664039
:100AE000900000200018024010B50146806B026C97
:100AF00012F0500F05D0026CD20626D500F0F2FAA3
:100B000010BD016C41F40071016401688A6812F043
:100B1000405F17D1027EAAB9CA6A12F4700F02D0E0
:100B20008A6852050ED44A6822F020024A60016C9D
:100B300021F480710164016CC90403D4016C41F09B
:100B40000101016400F0CCFA10BD806BC26CBDE8FD
:100B500010400846104710B5806B40210164416C7D
:100B600041F00401416400F0BDFA10BD10B5806B86
:100B700000F0B7FA10BD0000014800F0B4BA000060
:100B800018B90020464910B54A6822F440324A603C
:100B90004A6843681A434A6001684A6822F48072CE
:100BA0004A6001684A68036942EA03224A600168B0
:100BB0004A6822F040724A6001684A6883681A43B2
:100BC0004A6001688A6822F400628A6001688A6863
:100BD000C3681A438A60816A6FF07062D14201680B
:100BE0008A6822F070628A6001688A680CD0836A21
:100BF0001A438A6001688A6822F040528A6001685C
:100C00008A68C36A1A4301E022F040528A60016890
:100C10008A6822F002028A6001688A68037E42EADA
:100C200043028A6090F82010002901684A680FD0BA
:100C300042F400624A6001684A6822F460424A60F5
:100C400001684A68174C436A04EB43331A4301E0D6
:100C500022F400624A600168CA6A22F47002CA6221
:100C60000168CA6A838B104C04EB03531A43CA62AF
:100C700001688A6822F400728A6001688A6890F8C4
:100C8000303042EA43228A6001688A6822F4806236
:100C90008A6001688A68406942EA8020886010BDE5
:100CA0000023014000E0FFFF0000F0FF10B52849DD
:100CB000284C002091ED000A4FF4805284ED010A87
:100CC00084ED020A01EB8003D4ED010A93ED000AE2
:100CD000B4EEE00AF1EE10FA01D284ED010AD4ED8F
:100CE000020AB4EEE00AF1EE10FA01DD84ED020A28
:100CF000401C9042E6DB94ED020AD4ED010A15484F
:100D0000012130EE600A1C3084ED030AD4ED060A9E
:100D100030EEC00A00F014F96169081A4FF4B4719A
:100D2000606102E0A0F5B47060618842FADA02E026
:100D300000F5B47060610028FADBFFF70DFE63690F
:100D4000BDE8104043F6FF7203490020FFF758BE8C
:100D5000F878002008000020A0860100FEE70000CF
:100D6000014800F009BC0000D4B9002010B50348C8
:100D700000F002FC02490120087010BD60B900209B
:100D800038000020014800F0F7BB000030BB002015
:100D900001681823CAB2103AB2FBF3F2054B6FF3A5
:100DA0000901032A9B5CC36500D9091D81650846BA
:100DB0007047000064A9000810B5014600208B6947
:100DC0008A6A4FF0C07453B1B3F5005F15D072B1A9
:100DD000012A0CD0022A0AD0032A09D104E01AB150
:100DE000012A06D0022A03D1C96AC90100D501200F
:100DF00010BDC96AA142FAD010BD002AF7D0012A5D
:100E0000F2D0022AF3D0032AF3D010BD30B5046823
:100E1000256825F480252560046863608368402B7D
:100E2000036803D099600068C26030BD9A600068B2
:100E3000C16030BD70470000044940F2CF10086027
:100E400003494FF6FF70086070470000040000205F
:100E50000000002072B6FEE730B5B3F5804F05D034
:100E60006FF0704140F82210002030BD8C690B6893
:100E70008D6823434C688989240144EA052423436F
:100E800043EA014150F82230014C23401943E9E77D
:100E90000000F0CF10B50A6850F8223023F00103AB
:100EA00040F822308B68082B23D000224C681C436A
:100EB000CB6813430A691C4314434A698B69144382
:100EC000CA6914430A6A14434A6A14438A6A144377
:100ED000CA6A14430A6B1443CA6B234309681A4352
:100EE000054C50F82130A343134340F82130002033
:100EF00010BD4022DAE700007FFF0F0030B5D1E9D6
:100F0000003443EA04138C688D89240244EA0544C2
:100F100023430C8A094D00EB820005EB0454234364
:100F20000C7D6D0105EB0464896923430B43416823
:100F300001F040410B434360002030BD0000F0FF52
:100F4000D0ED030A012921D070EEC00AC0ED030ADA
:100F5000D0ED010A90ED031AD0ED041A60EE810A7B
:100F6000B6EE001A70EE611A60EE810A90ED001A7A
:100F700041EE000A90ED021A80ED040A41EE210ACA
:100F8000FDEEE00A10EE901A0846704770EE800AF7
:100F9000DCE7704778B50024009490F83C20012AE3
:100FA00019D0012280F83C200A6807250368092A25
:100FB00013D9DE680A3A02EB42029540AE43DE6086
:100FC0000A788B680A3A02EB420293400268D568BD
:100FD0002B43D36010E0022078BD1E6902EB420271
:100FE0009540AE431E610A788B6802EB4202934043
:100FF000026815692B4313614A681F25072A13D21B
:1010000003685E6B521E02EB82029540AE435E6344
:101010000A8893B20A79521E02EB82029340026858
:10102000556B2B43536327E003680D2A12D21E6BC6
:10103000D21F02EB82029540AE431E630A8893B230
:101040000A79D21F02EB820293400268156B2B4390
:10105000136311E0DE6A0D3A02EB82029540AE4363
:10106000DE620A8893B20A790D3A02EB820293405B
:101070000268D56A2B43D362164B0568144A9D4219
:1010800006D10D68122D03D1556845F480055560D1
:1010900005689D4218D10B68102B01D0112B13D17C
:1010A000536843F400035360096810290CD10A49BE
:1010B0000A4A0968B1FBF2F101EB8101490000E045
:1010C000491E00910029FBD180F83C40002078BDEA
:1010D00000230140002001406000002040420F003A
:1010E00070477047704770B50446006806684568E9
:1010F00016F0020F05F020022AD04AB3216CC9066F
:1011000003D4216C41F400712164816811F0405FC7
:1011100017D1217EA9B9C16A11F4700F02D081687C
:1011200049050ED4416821F020014160206C20F473
:1011300080702064206CC00403D4206C40F0010057
:1011400020642046FFF7CCFF21686FF01200086092
:1011500016F0040F05F0800132D089B3206CC00670
:1011600003D4206C40F4005020642068816811F49E
:10117000401F1ED1816B11F4401F02D081684905C8
:1011800017D44168490514D4816811F0405F10D12B
:10119000217E71B9416821F080014160206C20F40A
:1011A00080502064206CC00503D4206C40F0010006
:1011B00020642046FFF7EDFE21686FF00C00086008
:1011C00016F0010F05F040010FD071B120680068E2
:1011D000C0070AD0206C40F480302064204600F024
:1011E00043F821686FF00100086016F0200F05F049
:1011F00080610ED000290CD0606C40F00200606469
:1012000020686FF0200505602046FFF76BFF20681F
:10121000056070BD70B504004FF0000603D0206C6F
:10122000002510B107E0012070BD204600F01EF837
:10123000656484F83C50206CC00610D4206C20F407
:10124000885040F0020020642046FFF79BFC656454
:10125000206C20F0020040F00100206400E0012634
:1012600084F83C50304670BD7047000070B586B0C1
:10127000064614216846FEF7DDFF224930688842A1
:101280003DD121480025016841F48071016000686A
:1012900000F4807005901C481438016841F0010189
:1012A00001600068694600F001000590042000908C
:1012B0000320CDE90105154800F036FB154C144814
:1012C000C4E900050015A560C4E903504000606151
:1012D0008000C4E906054FF44030C4E90805204603
:1012E00000F01AFA08B1FFF7B5FDB463002202213D
:1012F0001220A66300F06CFD122000F05BFD06B02A
:1013000070BD00000020014044380240000002404F
:101310001064024060B90020F8B500230446009331
:1013200090F83C00012807D0012084F83C00206898
:101330008568ED0702D011E00220F8BD856845F010
:10134000010585604048414D0068B0FBF5F000EBB9
:10135000400000E0401E00900028FBD12068856816
:10136000ED0503D5856825F480758560206885685E
:10137000ED075FD0256C40F20166B54345F48075FA
:1013800025644068400505D5206C20F4005040F4E9
:1013900080502064206CC00404D5606C20F00600EE
:1013A000606400E0636484F83C30A36B2948284DF6
:1013B000D863A36B28481864A36B2848D8642368B3
:1013C0006FF0220018602068436843F08063436038
:1013D0002068836843F480738360134620680A465C
:1013E000A66B00F14C01304600F000FA68681C4919
:1013F000C006206806D0884224D1816811F0405F81
:1014000013D01FE08842F8D0164A904203D1D1F899
:101410000423D206F1D0144A904213D1D1F8041318
:1014200001F01F011029E8D30CE0816841F08041F0
:10143000816007E0206C40F010002064606C40F098
:10144000010060640020F8BD6000002040420F00F1
:1014500000230140E90A00086D0B0008570B000843
:1014600000200140002101400022014070B5437975
:10147000012B1CD0012545710223037103681E68EE
:1014800002F0100240F6FE749440A643D1E90041F8
:101490000C43944034431C6001680B68C0249440A2
:1014A000A3430B60057100214171084670BD022005
:1014B00070BD70B5040003D02079002510B105E09F
:1014C000012070BD6571204600F008F802202071EF
:1014D000256101202071002070BD000070B586B02C
:1014E000064614216846FEF7A5FE1E49306888426C
:1014F00036D11D480025016841F0005101600068A7
:1015000000F00050059018481038016841F00101C2
:1015100001600068694600F00100059030200090ED
:101520000320CDE90105114800F0FEF9114C1048E7
:1015300020604FF0606060604020C4E90205000157
:101540002061400060618000C4E9060525622046F4
:10155000656200F0E1F808B1FFF77CFCB460A663B7
:1015600006B070BD007400404038024000000240E8
:1015700088600240D4B900202DE9F84304464FF0BA
:101580000009CDF8009063484FF41651A56D00682E
:10159000B0FBF1F72E6894F85C20082101FA02F004
:1015A00030420FD02068026852070BD5026822F043
:1015B0000402026094F85C008140A960606D40F014
:1015C0000100606594F85C104FF0010808FA01F022
:1015D000304208D021684969090604D5A860606DC9
:1015E00040F00200606594F85C10042088403042AE
:1015F00008D021680968890704D5A860606D40F0AB
:101600000400606594F85C1010208840304218D0C7
:1016100021680968090714D5A86020680168490392
:1016200004D50068000308D5A16C07E00168C9056E
:1016300003D4016821F008010160216C09B1204642
:10164000884794F85C1020208840304231D02168CF
:101650000968C9062DD5A86094F8350005282068CA
:10166000016806D0490347D5006800031DD4616CAA
:101670001CE021F0160101602068416921F0800121
:101680004161206C08B9A06C20B12068016821F08C
:101690000801016094F85C103F208840A86084F83D
:1016A000358084F83490216D1FE0E16B09B120464C
:1016B0008847606D00282BD0606DC00714D00520CE
:1016C00084F835002068016821F00101016000986C
:1016D000401C0090B84203D820680068C007F6D1CB
:1016E00084F8358084F83490E16C002910D001B082
:1016F0002046BDE8F04308470168C905D5D4016814
:1017000021F01001016084F8358084F83490CCE732
:10171000BDE8F883600000202DE9F041044600F0A8
:10172000F1F905465CB1022084F83500002684F802
:1017300034602068016821F0010101600DE00120A2
:10174000BDE8F08100F0DEF9401B052805D9202016
:101750006065032084F83500F2E720680068C00760
:10176000F0D121680A6820480240D4E901031843F7
:10177000D4E903352B43184363691843A36918431D
:10178000E3691843236A18431043626A042A03D1A9
:10179000D4E90B231A431043086020684069656A46
:1017A00020F0070128460D43012704280CD1A06A28
:1017B0000543E06A40B12046FFF7FEFA20B1402021
:1017C000606584F83570BAE7206845612046FFF708
:1017D000DFFA94F85C203F2191408160666584F8CF
:1017E00035700020ACE700003F8010F02DE9F0419B
:1017F0000446866D90F83400002501280DD00120A4
:1018000084F8340094F835700020012F07D084F854
:10181000340002252846BDE8F0810220FBE70227BC
:1018200084F8357060652046FFF7F0FA94F85C1094
:101830003F208840B0602068016841F016010160D7
:10184000206C20B12068016841F008010160206827
:10185000016841F001010160DCE7000070B5044659
:1018600000F050F90546601C02D00448007804449A
:1018700000F048F9401BA042FAD370BD540000208C
:101880002DE9F04186B014216846FEF7D3FC2048CC
:101890000168002939D1012101601E480024016836
:1018A00041F00101016000684FF4805800F0010030
:1018B0000C27CDF80080CDE904700326022503969D
:1018C000CDE901546946144800F02EF84FF68070B7
:1018D000CDE9000502AA694682E8D0000F4800F071
:1018E00023F84CF23370CDE9000502AA694682E87C
:1018F000D0000B4800F018F802AA694682E8D00030
:10190000CDE90085074800F00FF806B0BDE8F0818A
:101910004C00002038380240001402400010024001
:10192000000C0240001802402DE9F84FDFF89C91AE
:101930000022A9F1040B03274FF00F0C09F1040A50
:10194000ABF1040E01250B6895402B40AB426ED1E4
:101950000C7904F00304012C01D0022C15D1866807
:10196000540007FA04F826EA0806D1F80C8008FAB1
:1019700004F848EA0608C0F808804468AC430D79CA
:10198000C5F300159540254345600C79E443A40751
:1019900008D0C568540007FA04F6B5438E68A6401F
:1019A0002E43C6600C7904F00304022C11D1D40834
:1019B00000EB8406356A5407E40E0CFA04F825EAB5
:1019C0000805D1F8108008FA04F848EA0508C6F8B6
:1019D00020800568540007FA04F6B5430E7906F036
:1019E0000306A6402E4306604C6814F4403F66D0C0
:1019F000374C256845F480452560246822F00305AE
:101A000004F480440094334C05EB0408D8F80858DB
:101A10009407260F0CFA06F4A5432F4CA04201D1DF
:101A2000002424E02D4CA04202D101241FE046E016
:101A30002B4CA04201D1022419E02A4CA04201D132
:101A4000032414E0284CA04201D104240FE0274CC9
:101A5000A04201D105240AE0254CA04201D1062470
:101A600005E0244CA04201D1072400E00824B44042
:101A70002C43C8F80848D9F800404D464E689C43AE
:101A8000F60200D51C432C60DAF8004055464E683B
:101A90009C43B60200D51C432C60DBF800405D4639
:101AA0004E689C43B60300D51C432C60DEF8004012
:101AB00075464E689C43F60300D51C432C60521CAF
:101AC000102AFFF43FAFBDE8F88F0000083C01404A
:101AD000443802400030014000000240000402404F
:101AE00000080240000C02400010024000140240B6
:101AF00000180240001C02400AB1816170470904CD
:101B0000FBE7000001488068704700005400002097
:101B100070B5040025D094F83D00002520B984F864
:101B20003C50204600F0B8F8242084F83D0020689E
:101B3000016821F0010101602068016841F4004161
:101B400001602068016821F40041016000F00CFA96
:101B50004D4B6168994201D84C4900E04C4988429C
:101B600001D2012070BD4B492268B0FBF1F15668EB
:101B700026F03F060E43566062689A4206D94FF43B
:101B8000967251434FF47A72B1FBF2F12268491C0C
:101B9000166A26F03F06314311626168994210D8F7
:101BA0004900401EB0FBF1F2521CC2F30B02042AA2
:101BB00001D2042022E0B0FBF1F0401CC0F30B0086
:101BC0001CE0A268F2B301EBC10303EB0116431E54
:101BD000B3FBF6F35B1C43F480431B0549D092B37F
:101BE00001EBC10202EB0111401EB0FBF1F0401C01
:101BF000C0F30B0040F4804040F400402168CA6903
:101C00004CF6FF739A431043C861D4E907100143AF
:101C10002068026822F0C00211430160D4E9030188
:101C200001432068826848F2FF339A431143816080
:101C3000D4E9051001432068C26822F0FF02114375
:101C4000C16001E00EE016E02068016841F001018A
:101C500001602564202084F83D00256384F83E500F
:101C6000002070BD01EB4106431EB3FBF6F35B1C85
:101C7000B3E70120C2E701EB4101401EB0FBF1F0E8
:101C8000401CC0F30B00B7E7A086010080841E0053
:101C900000093D0040420F0010B586B004461421F3
:101CA0006846FEF7C7FA13492068884220D11248D7
:101CB0000021026842F002020260006800F00200A7
:101CC0000590C02000901220CDE90101032003906F
:101CD0000420049069460948FFF726FE06481030A4
:101CE000016841F400110160006800F400100590E3
:101CF00006B010BD005400403038024000040240DD
:101D000002488168027811448160704754000020C5
:101D10000B4810B5016841F400710160016841F49D
:101D200080610160016841F480710160032000F06E
:101D30006FF80F2000F006F800F024F8002010BD26
:101D4000003C024070B50D4D04464FF47A7128787E
:101D5000B1FBF0F00A490968B1FBF0F000F0F8FBC4
:101D600048B9102C07D200222146501E00F030F84E
:101D700000206C6070BD012070BD00005400002088
:101D8000600000200A4808B5016841F48041016004
:101D9000006800F4804000900548001F016841F091
:101DA00080510160006800F08050009008BD000084
:101DB00044380240002809DB00F01F020121914055
:101DC0004009800000F1E020C0F8001170470000D9
:101DD000F0B40E4B1B68C3F30223C3F10704042CB9
:101DE00000D904241D1D072D01D2002300E0DB1EB5
:101DF000012606FA04F56D1E0D409D409E40761E9C
:101E0000164045EA0601F0BC02F048B80CED00E0CF
:101E1000064A00F0070110684FF6FF03184040EA39
:101E20000120034908431060704700000CED00E0FA
:101E30000000FA052DE9F0470D46040065D0DFF8F3
:101E40001491D9F80000EFB200F00700A84207D2C1
:101E500089F80070D9F8000000F00700A84254D1BA
:101E600020683D4E810712D5400703D5306840F405
:101E7000E05030602078000703D5306840F46040BF
:101E800030603068A16820F0F000084330602078AE
:101E9000C0072DD0304960680839012812D00228C7
:101EA00013D0032811D00968890700292DDA316879
:101EB00021F0030101433160FFF724FE804641F227
:101EC000883A0EE009688903EFE709688901ECE7C1
:101ED000FFF718FEA0EB0801514502D90320BDE829
:101EE000F0873068616800F00C00B0EB810FEFD133
:101EF000D9F80010484601F00701A94207D9077038
:101F0000006800F00700A84201D00120E7E7207830
:101F1000400705D53068E16820F4E05008433060A0
:101F20002078000706D53068216920F4604040EA37
:101F3000C100306000F038F83168084AC1F303117D
:101F4000515CC8400649086006480068FFF7FAFE81
:101F50000020C4E7003C0240083802406CA9000899
:101F60006000002058000020044805490068096806
:101F7000044AC1F38221515CC840704760000020D0
:101F8000083802407CA9000804480549006809682F
:101F9000044AC1F34231515CC840704760000020E0
:101FA000083802407CA90008154810B5006810F0F8
:101FB0000C01144813D0144B04290FD008290ED15A
:101FC0000F4C241F216801F03F022168490207D508
:101FD0002068C0F38810A0FB030106E0184610BD7E
:101FE0002168C1F38811A1FB00010023FEF7EAF884
:101FF0002168C1F30141491C4900B0FBF1F010BD5B
:10200000083802400024F40040787D012DE9F84FA3
:10201000040075D02078DFF838A3C007AAF10405C2
:1020200048D00AF104000168C1F38101012908D0F8
:102030000068C0F3810002280AD1DAF800004002EB
:1020400006D52868800335D560680028E1D031E0E6
:102050006068B0F5803F10D0B0F5A02F286810D090
:1020600020F480302860286820F480202860606890
:10207000A0B1FFF747FD06460CE0286840F4803029
:10208000F4E740F480202860F7E7FFF73BFD801B72
:10209000642871D828688003F7D50BE0FFF732FD7C
:1020A000064604E0FFF72EFD801B6428F1D828685F
:1020B0008003F7D42078DFF89C9280074FF0000B64
:1020C0003DD5A348001D016811F00C0F08D0006831
:1020D000C0F3810002280AD1DAF80000400206D4D9
:1020E0002868800715D5E068012809D111E0E0686B
:1020F000B8B10120C9F80000FFF704FD064605E06D
:1021000022E1FFF7FFFC801B0228C2D82868800765
:10211000F7D52868216920F0F80040EAC10028605E
:102120000DE0C9F800B0FFF7EDFC064604E0FFF74C
:10213000E9FC801B02281FD828688007F7D4207884
:10214000000722D5824F84486169703771B101213F
:102150000160FFF7D7FC064604E0FFF7D3FC801BC5
:10216000022809D838688007F7D50EE0C0F800B01B
:10217000FFF7C8FC064605E082E0FFF7C3FC801BC2
:1021800002287DD838688007F7D42078400765D5C5
:102190006F484FF000083C300068C0000BD46C481A
:1021A0003C30016841F08051016000684FF0010847
:1021B00000F080500090694F3868C0050FD438682F
:1021C00040F480703860FFF79DFC064604E0FFF79E
:1021D00099FC801B022853D83868C005F7D55C4F9E
:1021E000A0686C3701280FD00528386810D020F07F
:1021F00001003860386820F004003860A068B0B191
:10220000FFF780FC06460EE0386840F00100F4E776
:1022100040F004003860F7E7FFF774FC811B41F2DF
:102220008830814263D838688007F5D50DE0FFF724
:1022300069FC064606E0FFF765FC811B41F2883029
:10224000814254D838688007F5D4B8F1000F05D022
:102250003F483C30016821F080510160A069B8B36B
:102260003B49091D0968C1F38101022946D00228B2
:10227000584606D0C9F86000FFF744FC044639E030
:1022800035E04F46C9F86000FFF73CFC064604E025
:10229000FFF738FC801B022829D828688001F7D472
:1022A000D4E907010843A16A2D4A490802EB01411C
:1022B000626A41EA8211084394F82C1040EA0161F5
:1022C000CAF8001001203866FFF71CFC044605E040
:1022D0003CE0FFF717FC001B022808D828688001A3
:1022E000F7D533E0FFF70EFC001B022802D90320CC
:1022F000BDE8F88F28688001F4D427E00128F7D0E2
:10230000DAF80000E26900F4800191421CD1226AEF
:1023100000F03F01914217D147F6C071626A014057
:10232000B1EB821F10D1A26A4FF0FF3300F44031AD
:1023300003EB5202B1EB024F06D194F82C1000F0DF
:102340007060B0EB016F01D00120D1E70020CFE732
:102350000438024000004742800E474200700040AF
:102360000000FFFF70B5040009D0606A002540B18D
:1023700025616561A56294F8510040B10CE001202F
:1023800070BD6068B0F5827FF4D0E561F2E784F853
:102390005050204600F044F8022084F85100206894
:1023A000016821F040010160A088218900F4827059
:1023B00001F404410843A18901F400610843217C30
:1023C00001F002010843217D01F001010843218B46
:1023D00001F400710843217F01F03801084394F8AB
:1023E000201001F080010843218D01F400510843C1
:1023F00021680860A069042101EA104094F82410C3
:1024000001F010010843216848602068C16921F487
:102410000061C1616565012084F85100002070BD34
:102420002DE9F04186B0064614216846FDF702FF0B
:102430002949306888424BD128480025016841F479
:10244000805101600068254900F4805014390590DE
:10245000086840F001000860086800F0010005907D
:10246000086840F00200086008684FF0020800F0B9
:102470000200059080200324CDE90008CDE9025434
:102480000527694604971648FFF74EFA0820CDE95C
:102490000008CDE90254694604971248FFF744FA50
:1024A000124C114820604FF0C06060604020C4E9C9
:1024B00002050001C4E90405A561E5612562204625
:1024C0006562FFF729F908B1FEF7C4FCB464A6639E
:1024D00006B0BDE8F0810000003001404438024001
:1024E00000000240000402405864024030BB00205B
:1024F00070B515460E46040003D094F8490010B19B
:1025000007E0012070BD002084F84800204600F05C
:102510001DF804F108012068FEF7BCFC3146A268F2
:102520002068FEF7EBFCD4E901022946236BFEF795
:1025300093FCA168206850F8212042F0010240F885
:102540002120012084F84900002070BDFFF798B9D0
:1025500010B5401EB0F1807F01D3012010BD4FF0B7
:10256000E02460610F21601701F098FC0020A06159
:1025700007202061002010BD7047704770B590F8AB
:102580003C20012A32D0012580F83C50022280F8FC
:102590003D2002685368946823F070060B6833434B
:1025A0005360134B02689A4214D0B2F1804F11D09D
:1025B000104B9A420ED0104B9A420BD00F4B9A42BE
:1025C00008D00F4B9A4205D00E4B9A4202D00E4BC8
:1025D0009A4204D1496824F080031943916080F83D
:1025E0003D50002180F83C10084670BD022070BDAF
:1025F000000001400004004000080040000C0040C2
:1026000000040140004001400018004010B50400E3
:1026100003D094F83D0010B107E0012010BD002068
:1026200084F83C00204600F01FF8022084F83D00AA
:10263000211D206801F012F9012084F8460084F879
:102640003E0084F83F0084F8400084F8410084F89C
:10265000420084F8430084F8440084F8450084F87C
:102660003D00002010BD000030B587B004461421A5
:102670006846FDF7DFFD206800243349B0F1804F44
:1026800038D0324A90423DD1086840F002000860DC
:10269000086800F0020005902B481038016841F0EE
:1026A00001010160016801F001010591016841F03B
:1026B000040101600068022500F00400059040203C
:1026C0000090CDE9015469462148CDE90345FFF763
:1026D0002BF980200090CDE9015469461D48CDE9D1
:1026E0000345FFF721F9002211461D20FFF770FB7B
:1026F0001D2018E0086840F001000860086800F03C
:1027000001001EE0144A904211D1086840F0040014
:1027100008600868002200F00400059011461E20A1
:10272000FFF756FB1E20FFF745FB07B030BD0B4AF5
:102730009042FAD1086840F008000860086800F08C
:1027400008000590F1E70000403802400004004016
:10275000000002400008024000080040000C004059
:1027600090F83D10012901D001207047022180F826
:102770003D1000681149884214D0B0F1804F11D04B
:102780000F4988420ED00F4988420BD00E4988422B
:1027900008D00E49884205D00D49884202D00D4923
:1027A000884204D1816801F00701062903D001683D
:1027B00041F001010160002070470000000001406D
:1027C0000004004000080040000C004000040140EC
:1027D000004001400018004070B5044690F83C00ED
:1027E0000025012817D0012684F83C60022084F8D7
:1027F0003D002068826822F0770222F47F428260E6
:102800000868502838D00DDC20284FD005DC90B364
:10281000102811D14AE0022070BD302846D040284F
:102820000AD13BE060282FD070280DD0B0F5805F32
:1028300003D0B0F5005F12D0012584F83D60002080
:1028400084F83C00284670BDCB68D1E9012120689E
:1028500001F075F82068816841F0770109E0CB68E4
:10286000D1E90121206801F06AF82068816841F40B
:1028700080418160E1E719E0CA684968206801F099
:1028800079F95021206806E0CA684968206801F09B
:10289000C3F96021206801F05CF8CEE7CA68496896
:1028A000206801F067F940212068F4E722680146BA
:1028B0001046F0E770B50546007F124C01280FD195
:1028C0000021114800F0C0FA00EE100AB8EE400AEC
:1028D00084ED020AD4ED030A80EE801A84ED041A16
:1028E000287F022809D10421074800F0ADFA00EE44
:1028F000100AB8EE400A84ED030ABDE8704000F00B
:10290000B9BE000038000020D8BB00202DE9F041FE
:10291000054690F83C0000260C46012810D0012006
:1029200085F83C0072B1042A1CD0082A2CD00C2A4D
:1029300050D00126002085F83C003046BDE8F081EB
:102940000220FBE7D4E90012E368286801F024F9CB
:102950002868816921F00C01816128688169A26879
:1029600011430FE0D4E90012E368286801F066F92A
:102970002868816921F44061816128688169A268C1
:1029800041EA02218161D5E72868D4E9002C277B40
:10299000016A21F480710162C169036A21F00301B7
:1029A00041EA0C0121F0F00C39074FF420674CEAA2
:1029B000116123F4206307EA02221A43C161026213
:1029C0002868C16921F00C01C1612868C169A26849
:1029D000114329E02868D4E90021E768036A23F459
:1029E00080530362D0F81CC0036A2CF4407C4CEA8C
:1029F000012121F4704C4FF6FF7101EA07314FF4C9
:102A0000204741EA0C0123F4204307EA02321A432B
:102A1000C16102622868C16921F44061C16128680E
:102A2000C169A26841EA0221C16183E710B50400CF
:102A300003D094F83D0010B107E0012010BD002044
:102A400084F83C00204600F01EF8022084F83D0087
:102A5000211D206800F002FF012084F8460084F860
:102A60003E0084F83F0084F8400084F8410084F878
:102A7000420084F8430084F8440084F8450084F858
:102A80003D00002010BD704730B50446002579B1E7
:102A9000042910D0082911D094F8410089B10429E3
:102AA00012D0082913D094F84520012814D111E040
:102AB00094F83E00F2E794F83F00EFE794F8400006
:102AC000ECE794F84220F0E794F84320EDE794F81F
:102AD0004420EAE7012A01D0012030BD022081B163
:102AE000042913D0082916D084F8410084F8450041
:102AF000B1B1042919D0082944D00C2947D00125A7
:102B00003EE084F83E0084F84200F1E784F83F009C
:102B100084F84300ECE784F8400084F84400E7E7D9
:102B20002068C26842F0020203E02068C26842F0F6
:102B30000402C2600122206800F0F4FE16492068F9
:102B4000884214D0B0F1804F11D0144988420ED081
:102B5000134988420BD01349884208D01249884251
:102B600005D01249884202D01149884204D18168B7
:102B700001F00701062903D0016841F0010101605D
:102B8000284630BD2068C26842F00802D1E72068BC
:102B9000C26842F01002CCE700000140000400408F
:102BA00000080040000C00400004014000400140CB
:102BB0000018004070B50446006801694FF0000538
:102BC000C943890715D4C168C943890711D4E91ECF
:102BD000016101202077206880698007204602D0AB
:102BE000FFF768FE04E000F098F8204600F02AF9AC
:102BF000257720680169C943490717D4C168C943CB
:102C0000490713D46FF00401016102202077206886
:102C1000806910F4407F204602D0FFF74BFE04E0AD
:102C200000F07BF8204600F00DF925772068016957
:102C3000C943090716D4C168C943090712D46FF004
:102C400008010161042020772068C06980072046C0
:102C500002D0FFF72FFE04E000F05FF8204600F0FE
:102C6000F1F8257720680169C943C90617D4C168FE
:102C7000C943C90613D46FF0100101610820207701
:102C80002068C06910F4407F204602D0FFF712FE92
:102C900004E000F042F8204600F0D4F825772068E0
:102CA0000169C943C90708D1C168C943C90704D12B
:102CB000891E0161204600F0C6F820680169C943F9
:102CC000090609D4C168C943090605D46FF080011B
:102CD00001612046FFF750FC20680169C94349069D
:102CE00009D4C168C943490605D46FF040010161A8
:102CF000204600F0E7F820680169C94389060BD433
:102D0000C168C943890607D46FF0200101612046DC
:102D1000BDE87040FFF731BC70BD704770B5044628
:102D200090F83C0000260D4601280FD0012084F8C1
:102D30003C006AB1042A1DD0082A2FD00C2A3FD0AB
:102D40000126002084F83C00304670BD022070BD92
:102D5000206800F007FE2068816941F00801816168
:102D60002068816921F004018161206881692A69F4
:102D7000114311E0206800F025FE2068816941F4CC
:102D8000006181612068816921F48061816120682E
:102D900081692A6941EA02218161D2E7206800F055
:102DA00047FE2068C16941F00801C1612068C1691E
:102DB00021F00401C1612068C1692A69114311E051
:102DC000206800F069FE2068C16941F40061C161BA
:102DD0002068C16921F48061C1612068C1692A69E4
:102DE00041EA0221C161ACE710B5040003D094F8B8
:102DF0003D0010B107E0012010BD002084F83C0028
:102E0000204600F01EF8022084F83D00211D2068B5
:102E100000F024FD012084F8460084F83E0084F888
:102E20003F0084F8400084F8410084F8420084F8B0
:102E3000430084F8440084F8450084F83D000020F5
:102E400010BD7047704770470246002041B1042909
:102E500009D008290AD00C2901D11068006C7047EC
:102E60001068406B70471068806B70471068C06BCB
:102E7000704770B5044690F83C00012810D0012539
:102E800084F83C50022084F83D00204600F02CFEDF
:102E9000002138B184F83D5084F83C10012070BD09
:102EA000022070BD2068C26822F04002C260206823
:102EB000C26822F48042C26084F83D5084F83C101D
:102EC000002070BD704770B5040004D094F83D0038
:102ED000002510B106E0012070BD84F83C5020466A
:102EE00000F022F8242084F83D002068C16821F415
:102EF0000051C160204600F0BDFE2068016921F448
:102F0000904101612068416921F02A0141612068F6
:102F1000C16841F40051C1602564202084F83D005F
:102F200084F83E00002070BD10B586B00446142120
:102F30006846FDF77FF914492068884221D113487B
:102F40000021026842F010020260006800F01000E8
:102F500005900E481438026842F0010202600068D1
:102F600000F0010005904FF4C06000900220CDE910
:102F70000101032003900720049069460448FEF7EE
:102F8000D3FC06B010BD00000010014044380240E0
:102F9000000002402DE9F843044690F83D001F462A
:102FA00015460E4620284BD1C6B1BDB194F83C0061
:102FB000012845D0012084F83C004FF00008C4F8F7
:102FC0004080212084F83D00FEF79CFDA5848146C9
:102FD000E584A068B0F5805F03D004E00120BDE87F
:102FE000F883206920B13546002684F83C800EE045
:102FF0000025FAE78021204600F0C2FEA0B9ADB15D
:1030000015F8010B21684860E08C401EE084E08CDC
:103010004B464FF0000200970028EBD14FF04001E3
:10302000204600F0ADFE30B10320D8E736F8020BA1
:10303000C0F30800E6E7202084F83D000020CEE73A
:103040000220CCE7FEE72DE9F04128254FF6FF7777
:103050004FF4C878EC000A263A463146284601F07B
:103060006BFC0A36B6B2A642F6D32835ADB2464658
:10307000B542F0D32825A0460A243A4629462046E0
:1030800001F05AFC0A34A4B2B442F6D32835ADB2EA
:103090004545F1D3BDE8F0817FB500241648009482
:1030A000019402941349039401604FF48031C0E904
:1030B00001140461047680F820400903C1620125EF
:1030C000C5614FF0C061C460816280F830504561D5
:1030D000FEF7A0F808B1FDF7BDFE0220CDE900051E
:1030E000694602940448FDF755FF002801D0FDF71A
:1030F000B1FE7FBD0020014018B900201CB500249E
:10310000124900941048019408600846FEF7D1F96E
:1031100008B1FDF79FFE1C200090022001900022C4
:1031200069460A48FEF7A2F908B1FDF793FE00943C
:103130001022694605480194FEF798F9002801D04D
:10314000FDF788FE1CBD000000740040C0B90020DF
:10315000154808B5016841F480010160016801F477
:1031600080010091016841F40011016000680022B3
:1031700000F40010009011461020FEF729FE1020E8
:10318000FEF718FE002211463820FEF721FE3820F7
:10319000FEF710FE002211463B20FEF719FEBDE8A7
:1031A00008403B20FEF706BE3038024010B58EB016
:1031B0001C216846FDF73EF81C2107A8FDF73AF8E8
:1031C0001A484FF020411022016019494160062140
:1031D00081600021C160C0E904128161C1611302F4
:1031E0000162C0E909139302C0E90B1341638163D3
:1031F00041640F203C230090CDE9010303AC11236F
:1032000084E80E0009240691CDE907400AA8099434
:1032100080E80E000D9107AA69460448FFF768F997
:10322000002801D0FDF716FE0EB010BD34BA002004
:10323000040100A02DE9F04F87B014216846FCF787
:10324000F9FF4A480024016841F004010160016867
:1032500001F004010591016841F0800101600168FD
:1032600001F080010591016841F0010101600168F0
:1032700001F001010591016841F020010160016840
:1032800001F020010591016841F010010160016821
:1032900001F010010591016841F00201016001682F
:1032A00001F002010591016841F008010160016827
:1032B00001F008010591016841F0400101600068DA
:1032C000DFF8ACA000F040000590002240F247314A
:1032D0005046FEF711FCDFF89C904FF42046002288
:1032E00031464846FEF708FCDFF88CB04FF4FE7715
:1032F000002239465846FEF7FFFB4FF48078002243
:1033000041461E48FEF7F8FB07200125CDE90005E0
:103310000220CDE9024069465046FEF705FB0096C3
:10332000CDE90154694648460394FEF7FDFA00973B
:10333000CDE90154694658460394FEF7F5FA4FF477
:1033400050700090CDE90154694650460394FEF751
:10335000EBFACDF80080CDE90154694607480394A3
:10336000FEF7E2FA07B0BDE8F08F00003038024007
:103370000008024000040240001802400000024021
:103380000D4810B50B4901600C49416000214FF414
:1033900080428160C0E9031241618161C1610162C3
:1033A000FEF7B6FB002803D0BDE81040FDF752BD84
:1033B00010BD00000054004084BA0020A086010027
:1033C0000F4810B50D4901604FF482714160002132
:1033D0008160C1604FF400720161C0E90512C161F2
:1033E0000162416281620A21C162FEF7BBFF0028CF
:1033F00003D0BDE81040FDF72DBD10BD00300140E9
:10340000D8BA002010B58EB000240794089409940F
:103410000A940B941C2168460C94FCF70BFF1E4881
:103420004FF0804101602821C0E901140321C0E967
:10343000031480218161FFF7E9F808B1FDF70AFD67
:103440004FF48050079007A91348FFF7C5F908B15A
:10345000FDF700FD1048FFF7C7FC08B1FDF7FAFCC7
:103460005020CDE90B040BA90B48FFF787F808B1F2
:10347000FDF7F0FC602000900120CDE9010404225A
:10348000694605480494FFF749FC002801D0FDF780
:10349000E1FC0EB010BD000090BB002010B590B054
:1034A00000240B940C940D94142106A80E94FCF7A0
:1034B000C1FE2C480094019402940394049428497A
:1034C000059401605321C0E9011444F61F61C0E96D
:1034D000031480218161FFF799F808B1FDF7BAFC68
:1034E0004FF480500B900BA91E48FFF775F908B1F7
:1034F000FDF7B0FC1B48FFF799FA08B1FDF7AAFCED
:10350000042006905020CDE9070406A915480A9426
:10351000FFF7AFFC08B1FDF79DFC00946946114828
:103520000194FFF72BF808B1FDF794FC0120CDE9D9
:1035300002400494002202A90A480594FFF7E6F924
:1035400008B1FDF787FC02200290042202A9054879
:10355000FFF7DCF9002801D0FDF77CFC10B010BDAE
:1035600000040040D8BB002010B586B000241748E6
:103570000094019402940394049413490594016007
:103580005221C0E9011440F2E731C0E9031480215F
:103590008161FFF73BF808B1FDF75CFC4FF4805008
:1035A000009069460948FFF717F908B1FDF752FC8A
:1035B000049404A905480594FEF7E0FF002801D013
:1035C000FDF748FC06B010BD0008004020BC0020FC
:1035D00010B586B000241748009401940294039417
:1035E000049413490594C0E900145321C0E9024131
:1035F000802104618161FFF709F808B1FDF72AFC19
:103600004FF48050009069460A48FFF7E5F808B18A
:10361000FDF720FC2020CDE9040404A90548FEF7AD
:10362000ADFF002801D0FDF715FC06B010BD00006D
:10363000000C004068BC00200C4810B50A4901602D
:103640004FF4E1314160002181600C22C160C0E98A
:1036500004128161C161FFF736FC002803D0BDE888
:103660001040FDF7F7BB10BD00100140B0BC0020BA
:10367000FEE7FEE72DE9FE432E4DA888401C80B2F0
:10368000A8800A2854D110242BA0CDE900404FF681
:10369000E07640F2951923465022A0210296484632
:1036A00004F09CF8D5ED020A9FED261A81EE200A5F
:1036B00010EE100AFCF777FF41EC100B22A153EC3F
:1036C000102B234800F0D6FBDFF884804FF6FF77FD
:1036D000CDE9004810238222B4214846029704F025
:1036E0007DF81CA0CDE900401023502278210296DD
:1036F000484604F073F895ED040ADFED180A20EE51
:10370000200A10EE100AFCF74EFF41EC100B14A13A
:1037100053EC102B404600F0ADFBCDE900481023E0
:1037200050228C214846029704F058F80020A880C7
:10373000BDE8FE833800002050574D5F4628487A88
:10374000293A00000024744925302E3366487A0057
:10375000F8B80020447574793A0000000000C842AF
:10376000252E3266202525007047704738B50A4C53
:103770004FF6E070206040F2CF1001F005F820888D
:10378000002180B200904FF4A0734FF4C872084635
:1037900001F0DDF838BD000000000020FEF7B0BAEF
:1037A00030B593B030216846FCF744FD14210CA8D5
:1037B000FCF740FD1D480025016841F08051016083
:1037C000006800F0805011901948016841F4804170
:1037D00001600068022400F48040119001200390F1
:1037E00010200490009406940820CDE90750A820EA
:1037F000CDE9090404200B906846FEF707FC08B1E8
:1038000072B6FEE70CA90F2081E831004FF4A050FA
:103810000F904FF48050109005210CA8FEF70AFB82
:10382000002801D072B6FEE713B030BD4038024028
:10383000007000400248016841F470010160704767
:1038400088ED00E00148FFF7B5B90000D8BB0020C3
:103850000148FFF7AFB9000020BC0020F0B50268B6
:10386000254D264E264FDFF89CC0274B4FF0804E4B
:10387000A84209D0704507D0B04205D0B84203D065
:10388000604501D0984203D122F070044A68224377
:10389000A8421BD0704519D0B04217D0B84215D0FD
:1038A000604513D0984211D0184CA0420ED0184C4D
:1038B000A0420BD0174CA04208D0174CA04205D014
:1038C000164CA04202D0164CA04203D122F4407400
:1038D000CA6822434C6922F08002224302608A684F
:1038E000C2620A688262A84201D0984201D1096985
:1038F000016301214161F0BD00000140000400406E
:1039000000080040000C004000040140004001405D
:10391000004401400048014000180040001C0040E5
:103920000020004010B501F01F010123046A8B4004
:103930009C430462036A8A401343036210BD10B5BE
:10394000846842EA032224F47F440A4322438260CB
:1039500010BD826822F070020A4342F007018160C4
:1039600070470000F0B5026A22F001020262026AAA
:1039700043688469114E24F073050C68104F2C4382
:1039800022F002058A682A43B04201D0B84205D12C
:1039900022F00805CA682A4322F00402B04201D08E
:1039A000B84205D14D6923F440731D438B692B4305
:1039B00043608461496841630262F0BD00000140D8
:1039C00000040140F0B5026A22F010020262026AAD
:1039D000436884690D6824F4E64444EA05248D684C
:1039E00022F0200242EA05120F4D104EA84201D0EB
:1039F000B04206D1CF6822F0800242EA071222F0DC
:103A00004002A84201D0B04207D14D6923F440637F
:103A100043EA85038D6943EA85034360846149680D
:103A200081630262F0BD000000000140000401401B
:103A3000F0B5026A22F480720262026A4368C469C5
:103A400022F4007224F073050C68124E2C438D682A
:103A500042EA05220E4DA84201D0B04206D1CF68FD
:103A600022F4006242EA072222F48062A84201D0D6
:103A7000B04207D14D6923F4405343EA05138D69E1
:103A800043EA05134360C4614968C1630262F0BD43
:103A9000000001400004014030B5026A22F4805267
:103AA0000262036A4268C4690D6824F4E64444EA89
:103AB00005248D6823F4005343EA0533084DA842DA
:103AC00002D0084DA84204D14D6922F4804242EA56
:103AD00085124260C46149680164036230BD000020
:103AE000000001400004014070B5026800249368A2
:103AF0004D6823F070031D430B6825F007052B4329
:103B000093604A6812F00F0F31D11211082A2ED299
:103B1000DFE802F02E2E2E2E0B2127040B69D1E9AF
:103B200002210068FFF70BFF22E00A68052A10D087
:103B30000268156A136A23F001031362026893692D
:103B4000096923F0F00343EA0111916100680562FD
:103B50000EE0012070BD0A698968006800F00AF86B
:103B600006E00A698968006800F056F800E0012460
:103B7000204670BD10B5046A036A23F00103036296
:103B8000836923F0F00343EA021324F00A020A4394
:103B90008361026210BD000070B5046A24F0010464
:103BA00004628469056A154EB04214D0B0F1804FAA
:103BB00011D0134EB0420ED0124EB0420BD0124E66
:103BC000B04208D0114EB04205D0114EB04202D0E2
:103BD000104EB04203D124F00304144301E044F03A
:103BE00001041A0724F0F00444EA126225F00A03E3
:103BF00001F00A0119438261016270BD00000140B9
:103C00000004004000080040000C00400004014097
:103C1000004001400018004010B5036A23F0100373
:103C200003628469036A24F4704444EA023223F094
:103C3000A00343EA01118261016210BD30B5046A3C
:103C400024F0100404628569046A25F4407545EA8D
:103C5000022222F470454FF6FF7202EA033224F08A
:103C6000A0032A43A02404EA0111194382610162DE
:103C700030BD000070B5044600680169E26821F4B7
:103C8000405111430161A1682069E2690143606903
:103C9000104301432068C26849F20C639A430A4307
:103CA000C26020684169A26921F4407111434161F9
:103CB00031492068884202D03049884202D1FEF75B
:103CC00063F901E0FEF750F9E26900231921642548
:103CD0003226B2F5004F626828D0A0FB0101930F95
:103CE0009200FCF76FFA0146B0FBF5F06FF0180296
:103CF000504301EB800006EB0010B0FBF5F000F044
:103D0000F002B1FBF5F002EB0012B1FBF5F06FF041
:103D10001803584301EB800006EB0010B0FBF5F0F0
:103D200000F00F0021681044886070BDA0FB010105
:103D300092185B41FCF746FA0146B0FBF5F0020130
:103D4000B1FBF5F06FF01803584301EB800006EB70
:103D5000C000B0FBF5F000F0F80002EB4002B1FB50
:103D6000F5F0584301EB800006EBC000B0FBF5F026
:103D700000F00700D6E700000010014000140140E9
:103D80002DE9F0411E46174688460446069D26E06A
:103D9000681C24D025B1FDF7B5FE801BA8421ED9B2
:103DA00020680C3050E8001F21F4D07140E8001268
:103DB000002AF5D12068143050E8001F21F00101DD
:103DC00040E80012002AF5D1202084F83D0084F854
:103DD0003E00002084F83C000320BDE8F08120680C
:103DE000016838EA010004D00020B842D0D0002099
:103DF000F3E70120F9E7FEE72DE9F047134F064608
:103E00008025002210213846FDF776FEDFF840902D
:103E100000244FF480782E4201D1002200E00122DC
:103E200041464846FDF768FE012210213846FDF75D
:103E300063FE6D08002210213846FDF75DFE641C0C
:103E4000E4B2082CE7D3BDE8F08700000018024078
:103E5000000002400FB4054B10B503A9044A0298B4
:103E600000F0FEF810BC5DF814FB0000714700087C
:103E7000945800200FB4084B10B504A902AA039867
:103E800000F0EEF8044602A9002000F06CFC204689
:103E900010BC5DF814FB0000674700080907090E15
:103EA000002804DB00F1E02080F80014704700F0E7
:103EB0000F0000F1E02080F8141D704702E008C8F0
:103EC000121F08C1002AFAD170477047002001E094
:103ED00001C1121F002AFBD1704700002DE9FF5FCE
:103EE00082B00021DDE90430020DDDF840B003436B
:103EF00018D044F61050A2F2FF3242431514119824
:103F000001281FD0A5EB0B00401C5FEA000A4FF010
:103F100000064E4FDFF83891B046504615D5CAF12D
:103F2000000413E0119801244AA3012801D16FEA8B
:103F30000B010298119AC0E90031C0E9024206B0B3
:103F4000BDE8F09FCBF10000DFE704460021404AC6
:103F5000491842EB0450CDE9001012E0E00707D009
:103F600032463B4640464946FCF716FA80468946AB
:103F700032463B4610461946FCF70EFA06460F46F7
:103F80006410002CEAD1DDE90401DDE90023BAF177
:103F9000000F06DAFCF700FA42464B46FCF7FCF944
:103FA00005E0FCF76BFA42464B46FCF767FA04461D
:103FB0000E460022284BFCF719FC03D84FF0FF30C7
:103FC000014607E00022254B20463146FCF73DF92B
:103FD000FCF7F3FB102409E0002C0ADB0A22002383
:103FE000FCF7F0F8039B30321A55641E50EA0102C8
:103FF000F2D1641C039AC4F111031444119A012AEA
:1040000003D0012208430DD10AE0084304D0002068
:104010004FF0110B119072E7A3EB0B056D1E0DE035
:104020005B4504DD4FF0000205F1010504E003DA11
:104030004FF00002A5F10105002AECD00298119979
:10404000C0E90231C0E9004579E7000000001440F2
:104050000000F03F300000000000F0430000E03FAF
:104060002DE9FF4F95B09A46884606460025EEE1B9
:10407000252877D100242746F94A0121039400E03E
:10408000044316F8013F203B01FA03F01042F7D138
:1040900030782A2811D06FF02F033078A0F1300249
:1040A000092A16D8039A44F0020402EB820203EBB9
:1040B00042021044761C0390EFE758F8042B039259
:1040C000002A03DA504244F40054039044F00204FE
:1040D000761C30782E2816D116F8010F44F004040F
:1040E0002A280DD06FF02F023078A0F13003092B71
:1040F00009D807EB870302EB4303C718761CF3E7E5
:1041000058F8047B761C30786C280FD006DC4C28DD
:1041100017D068280DD06A2814D104E0742810D074
:104120007A280FD10DE044F400140AE044F480141E
:1041300001E044F440147278824202D104F5801404
:10414000761C761C307866280BD013DC582877D084
:1041500009DC002875D04528F6D04628F4D0472839
:104160001AD193E118E0632835D0642879D0652806
:1041700012D18BE1702873D008DC6728F1D0692850
:104180006FD06E280DD06F2806D1ACE073282CD0EC
:10419000752874D0782853D05246179990476D1CD3
:1041A00054E1C4F30250022809D003280DD0D8F8F6
:1041B000001004280DD00D6008F1040846E1D8F87D
:1041C0000010EA17C1E90052F6E7D8F800100D8098
:1041D000F2E70D70F0E718F8041B8DF800100020CE
:1041E0008DF80100EB46012003E058F804BB4FF0C6
:1041F000FF3061074FF0000102D40DE009F1010129
:104200008946B9420FDA8145F8DB1BF8091000290D
:10421000F4D108E009F1010189468142FADB1BF87B
:1042200009100029F6D103985346A0EB090721464F
:104230003846179A00F080FA284400EB090507E099
:1042400044E008E10DE01BF8010B52461799904736
:10425000B9F10109F7D2534621463846179AF2E0E0
:1042600039E00A21C4F302524FF0000B0091022AF8
:1042700006D058F8040BC117032A09D00AE023E03E
:1042800008F1070020F00702F2E80201904605E07D
:1042900000B2C117042A01D140B2C117002906DAC1
:1042A0000A460021404261EB02012D2202E0220574
:1042B00004D52B228DF80420012203E0E20701D06F
:1042C0002022F7E7914657E00A2100E010214FF045
:1042D000000B00910BE010214FF0000B44F00404A0
:1042E0000827009103E008204FF0000B0090C4F372
:1042F0000252022A05D058F8040B0021032A08D0E4
:1043000008E008F1070020F00702F2E802019046F9
:1043100003E080B2042A00D1C0B24FF000092207A6
:104320002AD53278702A07D0DDF800C08CF0100C46
:104330005CEA0B0C05D00EE040228DF8042001222F
:1043400008E050EA010306D030238DF804308DF8E0
:10435000052002229146009B83F0080353EA0B03D9
:104360000AD150EA010201D1620705D530228DF849
:1043700004204FF001097F1E3278582A04D039A258
:104380000C920CAA02920BE03BA2F9E75B46009A62
:10439000FBF718FF0C9B9B5C029A521E0292137053
:1043A00050EA0102F2D1029804A9081A00F1200B88
:1043B000600702D524F4803400E001275F4502DD68
:1043C000A7EB0B0000E0002000EB0B01009003982E
:1043D0004944401A0390E00306D453462146179AF5
:1043E000039800F0A9F90544002706E001A8524609
:1043F000C05D179990476D1C7F1C4F45F6DBE003AD
:104400000CD553462146179A039800F095F90544B8
:1044100004E030205246179990476D1C0099481EC1
:1044200000900029F5DC08E00298029952460078D5
:10443000491C0291179990476D1CBBF10001ABF12B
:10444000010BF1DC5BE100F065F90544761C307886
:1044500000287FF40DAE19B02846BDE8F08F0000AB
:10446000092801003031323334353637383961624A
:10447000636465660000000030313233343536370E
:10448000383941424344454600000000600700D4EB
:10449000062708F1070020F00700F0E80223804615
:1044A00003F0004C5FEA0C0001D097A009E0200562
:1044B00001D596A005E0E00701D095A001E0AFF29C
:1044C0004C001390307823F0004365280CD006DCB4
:1044D000452809D046281DD047287FD13BE06628D3
:1044E00018D067287AD136E00021112F01DB112086
:1044F00000E0781CCDE9000104A90CA8FFF7EEFC50
:10450000DDE90D010C9A4FF0000B07F10109109243
:1045100000914EE04FF000400097CDE9011004A952
:104520000CA8FFF7DBFCDDE90D020C9B0F994FF0A7
:10453000000B91461093009211B9791C00EB010910
:10454000B7EB090003D4C0F1FF3B07F10109A9EB68
:104550000700019042E0012F00DA01270021112F0E
:1045600001DD112000E03846CDE9000104A90CA8C6
:10457000FFF7B4FCDDE90D010C9A00914FF0000B40
:10458000B946109221070FD4009A4A4503DA9146A2
:1045900001E0A9F10109B9F1010F05DD109AA9F1B6
:1045A0000101515C3029F4D0B84202DA10F1040F55
:1045B00003DA0121CDE9011010E0002803DC834477
:1045C000A9EB000102E0411C494500DD8946A0EB52
:1045D0000B00401C01904FF000400290200705D4D2
:1045E0000198484502DB4FF0FF30019000208DF824
:1045F0004B0002980DF14B07B0F1004F25D002207F
:104600000C902B200D90029800280CDA404202906A
:104610002D200D9007E00A210298FBF7F3FF3031BF
:10462000029007F8011D0C99481E0C900029F2DC3D
:1046300002980028EFD1791E0D980870307800F0AC
:10464000200040F0450007F8020D11A8C01BC01D56
:1046500002901398007800B1012000EB0901019845
:1046600001EBE071029801440398401A401E039048
:10467000E00306D453462146179A039800F05CF8ED
:1046800005441398007818B15246179990476D1C4D
:10469000E00323D553462146179A039800F04CF8BF
:1046A00005441BE0BBF1000F07DB0098584504DD13
:1046B0001098179910F80B0001E017993020524616
:1046C000904701980BF1010B401E05F10105019087
:1046D00004D12E205246179990476D1CB9F1000164
:1046E000A9F10109DEDC05E017F8010B5246179924
:1046F00090476D1C0299481E02900029F4DC534635
:104700002146179A03989EE62D0000002B0000001A
:10471000200000002DE9F041044600251E46174602
:10472000880404D405E039462020B0476D1C641E7F
:10473000F9D52846BDE8F0812DE9F0410446002571
:104740001E469046C80301D5302700E02027880484
:1047500004D505E041463846B0476D1C641EF9D5C6
:104760002846BDE8F0810A68531C0B601070704742
:1047700013B54FF6FF73012269460248FEF70AFCA3
:1047800000981CBDB0BC002070B50A490646002444
:1047900008884D8821464543204602F039FF03F042
:1047A00089F84FF0D84002E0A0F88060641CAC4269
:1047B000FAD370BDE85800202DE9F04F374B2C2775
:1047C000194698712B2589884FF4305A4FF4285B8D
:1047D00041F6631E2A264FF0F00845F210594FF4B7
:1047E00048744FF4A07C4FF4F07260B1A3F800C09D
:1047F000A3F80280494530D1A3F808A0A3F80AB075
:10480000280298813EE0A3F80080A3F802C0494541
:1048100007D1A3F808A0A3F80AB04FF42C50988150
:1048200004E071451F8104D15D819E811A805C8006
:1048300001E05E819D81A1F5A640103803D0A1F56D
:10484000EE40963802D1A3F800C05A80A1F5184076
:1048500006381DD11A805C801AE071450FD0A1F591
:10486000184006380BD01F815E819D81A1F5A640BE
:1048700010380AD0A1F5EE40963806D008E01F8126
:104880005E819D811C805A80F0E71A80A3F802C0E7
:10489000BDE8F04F002002F0E9BD0000E85800201C
:1048A0002DE9FE4F0026A2EB000882465F1A701E1B
:1048B00035468946B8F1000F02DD4FF0010102E0F4
:1048C00003D14FF00001019102E0C8F1000801900E
:1048D000002F02DD4FF0010002E003D14FF0000095
:1048E000009002E0C7F1000700904046B84501DDA6
:1048F000044600E03C46601C4FF0000B029016E0BE
:104900001FFA89F11FFA8AF00C9A00F015F8464454
:104910003D44A64202DD0199361B8A44A54202DDD0
:1049200000992D1B89440BF101001FFA80FB0299AD
:104930008B45E5DDBDE8FE8F10B5144602F068FE3C
:1049400002F0B8FF4FF0D840A0F8804010BD2DE92C
:10495000F8411D46079C1646884607460B460094BC
:10496000FFF79EFF3A462B46414610460094FFF75C
:1049700097FF2B463246194638460094FFF790FFC2
:1049800032462B46414610460094FFF789FFBDE8AA
:10499000F88110B5CF2002F081FF002002F072FFF5
:1049A000C12002F06FFF302002F06CFFED2002F01A
:1049B00075FF642002F066FF032002F063FF1220FF
:1049C00002F060FF812002F05DFFE82002F066FF48
:1049D000852002F057FF102002F054FF7A2002F0E9
:1049E00051FFCB2002F05AFF392002F04BFF2C2060
:1049F00002F048FF002002F045FF342002F042FFA1
:104A0000022002F03FFFF72002F048FF202002F0D2
:104A100039FFEA2002F042FF002002F033FF0020BD
:104A200002F030FFC02002F039FF1B2002F02AFF05
:104A3000C12002F033FF012002F024FFC52002F064
:104A40002DFF302002F01EFF302002F01BFFC72098
:104A500002F024FFB72002F015FF362002F01EFFFF
:104A6000482002F00FFF3A2002F018FF552002F014
:104A700009FFB12002F012FF002002F003FF1A200C
:104A800002F000FFB62002F009FF0A2002F0FAFE51
:104A9000A22002F0F7FEF22002F000FF002002F058
:104AA000F1FE262002F0FAFE012002F0EBFEE020EB
:104AB00002F0F4FE0F2002F0E5FE2A2002F0E2FEF2
:104AC000282002F0DFFE082002F0DCFE0E2002F0BB
:104AD000D9FE082002F0D6FE542002F0D3FEA92011
:104AE00002F0D0FE432002F0CDFE0A2002F0CAFE02
:104AF0000F2002F0C7FE002002F0C4FE002002F0EA
:104B0000C1FE002002F0BEFE002002F0BBFEE1204C
:104B100002F0C4FE002002F0B5FE152002F0B2FE45
:104B2000172002F0AFFE072002F0ACFE112002F0C9
:104B3000A9FE062002F0A6FE2B2002F0A3FE5620BE
:104B400002F0A0FE3C2002F09DFE052002F09AFE3D
:104B5000102002F097FE0F2002F094FE3F2002F09A
:104B600091FE3F2002F08EFE0F2002F08BFE2B20E4
:104B700002F094FE002002F085FE002002F082FE8A
:104B8000012002F07FFE3F2002F07CFE2A2002F08E
:104B900085FE002002F076FE002002F073FE002069
:104BA00002F070FEEF2002F06DFE112002F076FEA2
:104BB0007820FCF753FEBDE81040292002F06EBEBD
:104BC00010B5FF2002F06AFEFF2002F05BFE982085
:104BD00002F058FE062002F055FEBC2002F05EFEF8
:104BE000012002F04FFE0F2002F04CFE612002F087
:104BF00049FEFF2002F046FE012002F043FE0120A4
:104C000002F040FE0B2002F03DFE102002F03AFEC2
:104C1000372002F037FE632002F034FEFF2002F05E
:104C200031FEFF2002F02EFE012002F02BFE0120BB
:104C300002F028FE002002F025FE002002F022FEF5
:104C4000FF2002F01FFE522002F01CFE012002F0A5
:104C500019FE002002F016FE402002F013FEBD20D7
:104C600002F01CFE012002F00DFE232002F00AFEDD
:104C7000452002F007FE672002F004FE012002F04A
:104C800001FE232002F0FEFD452002F0FBFD67201F
:104C900002F0F8FDBE2002F001FE002002F0F2FD5D
:104CA000012002F0EFFDAB2002F0ECFD602002F0ED
:104CB000E9FD222002F0E6FD222002F0E3FD2220A1
:104CC00002F0E0FD222002F0DDFD222002F0DAFDFC
:104CD000C72002F0E3FD362002F0D4FDED2002F003
:104CE000DDFD7F2002F0CEFD0F2002F0CBFDC020C5
:104CF00002F0D4FD0F2002F0C5FD0B2002F0C2FD32
:104D00000A2002F0BFFDFC2002F0C8FD082002F0DE
:104D1000B9FDDF2002F0C2FD002002F0B3FD00204B
:104D200002F0B0FD002002F0ADFD002002F0AAFD6F
:104D3000002002F0A7FD202002F0A4FDF32002F0E5
:104D4000ADFD742002F09EFDB42002F0A7FD00200E
:104D500002F098FD002002F095FD002002F092FD87
:104D6000F72002F09BFD822002F08CFDB12002F0C2
:104D700095FD002002F086FD132002F083FD132034
:104D800002F080FDF22002F089FD802002F07AFD21
:104D9000042002F077FD402002F074FD282002F08C
:104DA00071FDC12002F07AFD172002F06BFD882012
:104DB00002F068FD882002F065FD202002F062FD0F
:104DC000E02002F06BFD002002F05CFD0A2002F002
:104DD00059FD122002F056FD102002F053FD0E2066
:104DE00002F050FD202002F04DFDCC2002F04AFDE3
:104DF000072002F047FD062002F044FD0B2002F0E0
:104E000041FD0E2002F03EFD0F2002F03BFD0D2083
:104E100002F038FD152002F035FD102002F032FDC1
:104E2000002002F02FFDE12002F038FD002002F00A
:104E300029FD0B2002F026FD132002F023FD0D209A
:104E400002F020FD0E2002F01DFD1B2002F01AFDD5
:104E5000712002F017FD062002F014FD062002F07A
:104E600011FD0A2002F00EFD0F2002F00BFD0E20B6
:104E700002F008FD0F2002F005FD152002F002FDF2
:104E80000C2002F0FFFC002002F0FCFC2A2002F0C3
:104E900005FD002002F0F6FC002002F0F3FC0120EA
:104EA00002F0F0FCDF2002F0EDFC2B2002F0F6FC1B
:104EB000002002F0E7FC002002F0E4FC032002F0F6
:104EC000E1FC1F2002F0DEFC3A2002F0E7FC552056
:104ED00002F0D8FC362002F0E1FC002002F0D2FC07
:104EE000112002F0DBFC7820FCF7B8FC292002F04E
:104EF000D5FC1420FCF7B2FCBDE810402C2002F0D9
:104F0000CDBC10B5ED2002F0C9FC012002F0BAFCC6
:104F1000FE2002F0B7FCEE2002F0C0FCDE2002F022
:104F2000B1FC212002F0AEFCF12002F0B7FC012020
:104F300002F0A8FCDF2002F0B1FC102002F0A2FC7D
:104F4000C42002F0ABFC8F2002F09CFCC62002F0D3
:104F5000A5FC002002F096FCE22002F093FCE22087
:104F600002F090FCE22002F08DFCBF2002F096FCE3
:104F7000AA2002F087FCB02002F090FC0D2002F085
:104F800081FC002002F07EFC0D2002F07BFC002062
:104F900002F078FC112002F075FC002002F072FC97
:104FA000192002F06FFC002002F06CFC212002F0BE
:104FB00069FC002002F066FC2D2002F063FC00205A
:104FC00002F060FC3D2002F05DFC002002F05AFC83
:104FD0005D2002F057FC002002F054FC5D2002F03E
:104FE00051FC002002F04EFCB12002F057FC802062
:104FF00002F048FC002002F045FC8B2002F042FC4D
:10500000002002F03FFC962002F03CFC002002F061
:1050100039FCB22002F042FC002002F033FC0020F8
:1050200002F030FC022002F02DFC002002F02AFCED
:10503000032002F027FC002002F024FCB32002F041
:105040002DFC002002F01EFC002002F01BFC0020C2
:1050500002F018FC002002F015FC002002F012FC07
:10506000002002F00FFC002002F00CFC002002F0F7
:1050700009FC002002F006FC002002F003FC0020E6
:1050800002F000FC002002F0FDFB002002F0FAFB21
:10509000002002F0F7FB002002F0F4FB002002F0F9
:1050A000F1FB002002F0EEFB002002F0EBFB002001
:1050B00002F0E8FB002002F0E5FB002002F0E2FB3A
:1050C000002002F0DFFB002002F0DCFB002002F0F9
:1050D000D9FBB42002F0E2FB8B2002F0D3FB0020CE
:1050E00002F0D0FB962002F0CDFB002002F0CAFBBC
:1050F000A12002F0C7FB002002F0C4FBB52002F0A3
:10510000CDFB022002F0BEFB002002F0BBFB03201F
:1051100002F0B8FB002002F0B5FB042002F0B2FB65
:10512000002002F0AFFBB62002F0B8FB002002F036
:10513000A9FB002002F0A6FBB72002F0AFFB002085
:1051400002F0A0FB002002F09DFB3F2002F09AFB42
:10515000002002F097FB5E2002F094FB002002F09A
:1051600091FB642002F08EFB002002F08BFB8C2070
:1051700002F088FB002002F085FBAC2002F082FBED
:10518000002002F07FFBDC2002F07CFB002002F01C
:1051900079FB702002F076FB002002F073FB902078
:1051A00002F070FB002002F06DFBEB2002F06AFBC6
:1051B000002002F067FBDC2002F064FB002002F01C
:1051C00061FBB82002F06AFB002002F05BFB0020CC
:1051D00002F058FB002002F055FB002002F052FBC9
:1051E000002002F04FFB002002F04CFB002002F0F8
:1051F00049FB002002F046FBBA2002F04FFB2420BE
:1052000002F040FB002002F03DFB002002F03AFBE0
:10521000002002F037FBC12002F040FB202002F00A
:1052200031FB002002F02EFB542002F02BFB00206B
:1052300002F028FBFF2002F025FB002002F022FBF9
:10524000C22002F02BFB0A2002F01CFB002002F01F
:1052500019FB042002F016FB002002F013FBC32010
:1052600002F01CFB3C2002F00DFB002002F00AFBC8
:105270003A2002F007FB002002F004FB392002F084
:1052800001FB002002F0FEFA372002F0FBFA0020BA
:1052900002F0F8FA3C2002F0F5FA002002F0F2FAEF
:1052A000362002F0EFFA002002F0ECFA322002F091
:1052B000E9FA002002F0E6FA2F2002F0E3FA0020DB
:1052C00002F0E0FA2C2002F0DDFA002002F0DAFA17
:1052D000292002F0D7FA002002F0D4FA262002F0AA
:1052E000D1FA002002F0CEFA242002F0CBFA0020FE
:1052F00002F0C8FA242002F0C5FA002002F0C2FA37
:10530000232002F0BFFA002002F0BCFA3C2002F099
:10531000B9FA002002F0B6FA362002F0B3FA002003
:1053200002F0B0FA322002F0ADFA002002F0AAFA40
:105330002F2002F0A7FA002002F0A4FA2C2002F09D
:10534000A1FA002002F09EFA292002F09BFA002028
:1053500002F098FA262002F095FA002002F092FA64
:10536000242002F08FFA002002F08CFA242002F0B0
:1053700089FA002002F086FA232002F083FA002046
:1053800002F080FAC42002F089FA622002F07AFA70
:10539000002002F077FA052002F074FA002002F0F3
:1053A00071FA842002F06EFA002002F06BFAF0200D
:1053B00002F068FA002002F065FA182002F062FAA2
:1053C000002002F05FFAA42002F05CFA002002F054
:1053D00059FA182002F056FA002002F053FA502031
:1053E00002F050FA002002F04DFA0C2002F04AFAC6
:1053F000002002F047FA172002F044FA002002F0E1
:1054000041FA952002F03EFA002002F03BFAF32028
:1054100002F038FA002002F035FAE62002F032FA03
:10542000002002F02FFAC52002F038FA322002F0F4
:1054300029FA002002F026FA442002F023FA002084
:1054400002F020FA652002F01DFA002002F01AFA9C
:10545000762002F017FA002002F014FA882002F0F9
:1054600011FA002002F00EFAC62002F017FA2020EE
:1054700002F008FA002002F005FA172002F002FA02
:10548000002002F0FFF9012002F0FCF9002002F0F8
:10549000F9F9C72002F002FA002002F0F3F9002027
:1054A00002F0F0F9002002F0EDF9002002F0EAF934
:1054B000C82002F0F3F9002002F0E4F9002002F025
:1054C000E1F9002002F0DEF9002002F0DBF9C9204A
:1054D00002F0E4F9002002F0D5F9002002F0D2F940
:1054E000002002F0CFF9002002F0CCF9002002F0F9
:1054F000C9F9002002F0C6F9002002F0C3F900202B
:1055000002F0C0F9002002F0BDF9002002F0BAF963
:10551000002002F0B7F9002002F0B4F9002002F0F8
:10552000B1F9002002F0AEF9002002F0ABF9002042
:1055300002F0A8F9E02002F0B1F9162002F0A2F979
:10554000002002F09FF91C2002F09CF9002002F0DC
:1055500099F9212002F096F9002002F093F9362003
:1055600002F090F9002002F08DF9462002F08AF94D
:10557000002002F087F9522002F084F9002002F0A6
:1055800081F9642002F07EF9002002F07BF97A2094
:1055900002F078F9002002F075F98B2002F072F920
:1055A000002002F06FF9992002F06CF9002002F05F
:1055B00069F9A82002F066F9002002F063F9B92029
:1055C00002F060F9002002F05DF9C42002F05AF9FF
:1055D000002002F057F9CA2002F054F9002002F02E
:1055E00051F9D22002F04EF9002002F04BF9D920F7
:1055F00002F048F9002002F045F9E02002F042F9FB
:10560000002002F03FF9F32002F03CF9002002F004
:1056100039F9E12002F042F9162002F033F90020B6
:1056200002F030F91C2002F02DF9002002F02AF9D6
:10563000222002F027F9002002F024F9362002F09F
:1056400021F9002002F01EF9452002F01BF900208C
:1056500002F018F9522002F015F9002002F012F9B8
:10566000642002F00FF9002002F00CF97A2002F019
:1056700009F9002002F006F98B2002F003F900205E
:1056800002F000F9992002F0FDF8002002F0FAF88B
:10569000A82002F0F7F8002002F0F4F8B92002F098
:1056A000F1F8002002F0EEF8C42002F0EBF8002040
:1056B00002F0E8F8CA2002F0E5F8002002F0E2F873
:1056C000D22002F0DFF8002002F0DCF8D82002F04F
:1056D000D9F8002002F0D6F8E02002F0D3F800203C
:1056E00002F0D0F8F32002F0CDF8002002F0CAF862
:1056F000E22002F0D3F8052002F0C4F8002002F006
:10570000C1F80B2002F0BEF8002002F0BBF81B200D
:1057100002F0B8F8002002F0B5F8342002F0B2F838
:10572000002002F0AFF8442002F0ACF8002002F0B4
:10573000A9F84F2002F0A6F8002002F0A3F861209B
:1057400002F0A0F8002002F09DF8792002F09AF80B
:10575000002002F097F8882002F094F8002002F070
:1057600091F8972002F08EF8002002F08BF8A62026
:1057700002F088F8002002F085F8B72002F082F8E5
:10578000002002F07FF8C22002F07CF8002002F036
:1057900079F8C72002F076F8002002F073F8D120E3
:1057A00002F070F8002002F06DF8D62002F06AF8DE
:1057B000002002F067F8DD2002F064F8002002F01B
:1057C00061F8F32002F05EF8002002F05BF8E320BD
:1057D00002F064F8052002F055F8002002F052F8BB
:1057E0000A2002F04FF8002002F04CF81C2002F0D2
:1057F00049F8002002F046F8332002F043F8002078
:1058000002F040F8442002F03DF8002002F03AF89F
:10581000502002F037F8002002F034F8622002F045
:1058200031F8002002F02EF8782002F02BF800204A
:1058300002F028F8882002F025F8002002F022F873
:10584000972002F01FF8002002F01CF8A62002F0BA
:1058500019F8002002F016F8B72002F013F8002023
:1058600002F010F8C22002F00DF8002002F00AF851
:10587000C72002F007F8002002F004F8D12002F05F
:1058800001F8002001F0FEFFD52001F0FBFF002011
:1058900001F0F8FFDD2001F0F5FF002001F0F2FF3C
:1058A000F32001F0EFFF002001F0ECFFE42001F015
:1058B000F5FF012001F0E6FF002001F0E3FF0120E9
:1058C00001F0E0FF002001F0DDFF022001F0DAFF2F
:1058D000002001F0D7FF2A2001F0D4FF002001F0C2
:1058E000D1FF3C2001F0CEFF002001F0CBFF4B2088
:1058F00001F0C8FF002001F0C5FF5D2001F0C2FFEC
:10590000002001F0BFFF742001F0BCFF002001F077
:10591000B9FF842001F0B6FF002001F0B3FF93200F
:1059200001F0B0FF002001F0ADFFA22001F0AAFFBE
:10593000002001F0A7FFB32001F0A4FF002001F038
:10594000A1FFBE2001F09EFF002001F09BFFC420BC
:1059500001F098FF002001F095FFCD2001F092FFAB
:10596000002001F08FFFD32001F08CFF002001F018
:1059700089FFDD2001F086FF002001F083FFF32086
:1059800001F080FF002001F07DFFE52001F086FF9F
:10599000002001F077FF002001F074FF002001F0EB
:1059A00071FF002001F06EFF022001F06BFF00206C
:1059B00001F068FF292001F065FF002001F062FF7F
:1059C0003C2001F05FFF002001F05CFF4B2001F064
:1059D00059FF002001F056FF5D2001F053FF002029
:1059E00001F050FF742001F04DFF002001F04AFF4C
:1059F000842001F047FF002001F044FF932001F0D4
:105A000041FF002001F03EFFA22001F03BFF0020FB
:105A100001F038FFB32001F035FF002001F032FF24
:105A2000BE2001F02FFF002001F02CFFC42001F068
:105A300029FF002001F026FFCD2001F023FF0020E8
:105A400001F020FFD32001F01DFF002001F01AFF1C
:105A5000DC2001F017FF002001F014FFF32001F01B
:105A600011FF002001F00EFFE62001F017FF1120CA
:105A700001F008FF002001F005FF342001F002FFD3
:105A8000002001F0FFFE562001F0FCFE002001F096
:105A9000F9FE762001F0F6FE002001F0F3FE7720FB
:105AA00001F0F0FE002001F0EDFE662001F0EAFEBC
:105AB000002001F0E7FE882001F0E4FE002001F064
:105AC000E1FE992001F0DEFE002001F0DBFEBB20AC
:105AD00001F0D8FE002001F0D5FE992001F0D2FEA1
